S019000050726F6A6563744A6F616368696D4855452E7372656397
S1130000E9C0000008C1000006C1000004C10000EE
S113001002C1000000C10000FEC00000FCC00000DE
S1130020FAC00000F8C00000F6C00000F4C00000F0
S1130030F2C00000F0C00000EEC00000ECC0000000
S1130040EAC00000E8C00000E6C00000E4C0000010
S1130050E2C00000E0C00000DEC00000DCC0000020
S1130060DAC00000D8C00000D6C00000D4C0000030
S1130070D2C00000D0C00000CEC00000CCC0000040
S1130080CAC00000C8C00000C6C00000C4C0000050
S1130090C2C00000C0C00000BEC00000BCC0000060
S11300A0BAC00000B8C00000B6C00000B4C0000070
S11300B0B2C00000B0C00000AEC00000ACC0000080
S11300C0AAC00000A8C00000A6C00000A4C0000090
S11300D0A2C00000A0C000009EC000009CC00000A0
S11300E09AC00000B101E101E101E101BD01E101BA
S11300F0C901D501E101E101E101E101E101E10110
S1130100E101E101E101E101E101E101E101E101DB
S1130110E101E101E101E101E101E101E101E101CB
S1130120E101E101E101E101E101E101E101E101BB
S1130130E101E101E101E101E101E101E101E101AB
S1130140E101E101E101E101E101E101E101E1019B
S1130150E101E101E101E101E101E101E101E1018B
S1130160E101E101B401E101E101E101C001E101C9
S1130170CC01D801E101E101E101E101E101E10189
S1130180E101E101E101E101E101E101E101E1015B
S1130190E101E101E101E101E101E101E101E1014B
S11301A0E101E101B701E101E101E101C301E10183
S11301B0CF01DB01E101E101E101E101E101E10143
S11301C0E101E101BA01E101E101E101C601E1015D
S11301D0D201DE0111241FBECFEFD1E2DEBFCDBFBD
S11301E000E00CBF12E0A0E0B2E0ECE1FBE200E0D2
S11301F00BBF02C007900D92AA34B107D9F722E0D1
S1130200AAE4B2E001C01D92A335B207E1F70E944F
S113021021100C948C15F4CECF93DF93CDB7DEB7B9
S113022087E091E02FE0FC01208388E091E028E062
S113023031E0F9012081206FFC0120830000DF916F
S1130240CF910895CF93DF931F92CDB7DEB788E0A7
S113025091E0FC018081807F8983809100029091EC
S1130260010282309105A9F0833091051CF40197B5
S113027039F02AC083309105A9F00497E1F024C035
S113028089818760898388E091E02981FC0120834A
S11302901BC089818B60898388E091E02981FC01FE
S11302A0208312C089818D60898388E091E029814F
S11302B0FC01208309C089818E60898388E091E0F4
S11302C02981FC01208300008091000290910102A9
S11302D00196909301028093000280910002909114
S11302E00102059734F081E090E09093010280933D
S11302F0000200000F90DF91CF910895CF93DF9318
S11303001F92CDB7DEB786E091E0FC01808189833E
S11303108981803F18F4898106D001C08EE20F9054
S1130320DF91CF910895CF93DF931F921F92CDB7A2
S1130330DEB78A838A81882F90E0092E000CAA0BED
S1130340BB0B47E750E027E730E0841B950B2817E9
S11303503907B8F1FC018827EE58FF4F8F4F0C94F2
S1130360471581E3898330C084E389832DC087E303
S113037089832AC08AE2898327C082E3898324C0CF
S113038085E3898321C088E389831EC080E3898350
S11303901BC083E3898318C086E3898315C089E37E
S11303A0898312C083E289830FC081E489830CC0EE
S11303B082E4898309C083E4898306C084E4898351
S11303C003C08EE28983000089810F900F90DF9132
S11303D0CF910895CF93DF93CDB7DEB7A0970FB633
S11303E0F894DEBF0FBECDBF82E091E022E031E0A1
S11303F0F90120812062FC01208380E090E0A0E8E4
S1130400BFE389839A83AB83BC832BEA3AEA4AEA43
S11304105EE369817A818B819C810E94E414DC0112
S1130420CB018D839E83AF83B88720E030E040E822
S11304305EE369817A818B819C810E94E414DC01F2
S1130440CB0189879A87AB87BC8720E030E040E8FE
S11304505FE36D817E818F8198850E94D313882309
S11304601CF481E08D87B2C020E03FEF4FE757E4F2
S113047069857A858B859C850E94E01418160CF09A
S11304807BC020E030E04AE754E469817A818B81C3
S11304909C810E94D713DC01CB018E879F87A88B98
S11304A0B98B20E030E04AE753E46E857F85888984
S11304B099890E94E414DC01CB018A8B9B8BAC8B61
S11304C0BD8B20E030E040E85FE36A897B898C895A
S11304D09D890E94D31388232CF481E090E09F8BA4
S11304E08E8B3FC020E03FEF4FE757E46A897B895A
S11304F08C899D890E94E01418164CF520E030E0A8
S113050040E251E46E857F85888999890E94E414CC
S1130510DC01CB01BC01CD010E943F14DC01CB0105
S11305209F8B8E8B0FC089E190E0998F888F888D87
S1130530998D0197F1F7998F888F8E899F890197FB
S11305409F8B8E8B8E899F89892B69F73FC06A891F
S11305507B898C899D890E943F14DC01CB019F8B90
S11305608E8B8E899F899B8F8A8F8A8D9B8D019715
S1130570F1F79B8F8A8F2AC020E030E04FE753E4E5
S11305806D817E818F8198850E94E0141816ACF4E9
S113059069857A858B859C850E943F14DC01CB019B
S11305A09D8F8C8F8C8D9D8D9F8F8E8F8E8D9F8D2B
S11305B00197F1F79F8F8E8F0FC06D817E818F81A0
S11305C098850E943F14DC01CB018D878D8588A31B
S11305D088A18A95F1F788A382E091E022E031E0D6
S11305E0F90120812F7DFC0120830000A0960FB625
S11305F0F894DEBF0FBECDBFDF91CF910895CF93A6
S1130600DF9300D0CDB7DEB78A836B838B818823D9
S113061051F082E091E022E031E0F901208128608C
S1130620FC01208309C082E091E022E031E0F9017D
S11306302081277FFC01208382E091E022E031E0E9
S1130640F90120812F7EFC01208381E290E021E2E8
S113065030E0F90120812F60FC01208382E290E0E8
S1130660FC018081807F898382E290E02A81229547
S11306702F70322F2981232BFC012083ABDE82E2F1
S113068090E02A81322F3F702981232BFC012083A3
S1130690A1DE82E290E029812F60FC01208300002A
S11306A00F900F900F90DF91CF9108950F931F93A8
S11306B0CF93DF93CDB7DEB7C256D1090FB6F89406
S11306C0DEBF0FBECDBF9E012E593F4FF90180837F
S11306D0CE018E599F4FFC018081882351F082E026
S11306E091E022E031E0F90120812860FC012083BF
S11306F009C082E091E022E031E0F9012081277F06
S1130700FC01208382E091E022E031E0F9012081C4
S11307102061FC01208381E290E021E230E0F901D4
S11307202081207FFC01208382E091E022E031E0FF
S1130730F90120812062FC01208380E090E0A0E8A0
S1130740BFE38A839B83AC83BD838E010A5B1F4F07
S11307502BEA3AEA4AEA5EE36A817B818C819D81D5
S11307600E94E414DC01CB01F80180839183A2830D
S1130770B3838E01065B1F4F20E030E040E85EE368
S11307806A817B818C819D810E94E414DC01CB0110
S1130790F80180839183A283B383CE018A5B9F4F48
S11307A020E030E040E85FE3FC01608171818281F8
S11307B093810E94D31388233CF4CE01825B9F4F24
S11307C021E0FC0120832CC1CE01865B9F4F20E0F9
S11307D03FEF4FE757E4FC0160817181828193818F
S11307E00E94E01418160CF0CDC020E030E04AE777
S11307F054E46A817B818C819D810E94D713DC0142
S1130800CB019E01215B3F4FF90180839183A28339
S1130810B3838E010D5A1F4FCE01815B9F4F20E0A1
S113082030E04AE753E4FC01608171818281938165
S11308300E94E414DC01CB01F80180839183A2833C
S1130840B383CE018D5A9F4F20E030E040E85FE350
S1130850FC0160817181828193810E94D31388237A
S11308604CF4CE01895A9F4F21E030E0FC013183E2
S113087020836DC0CE018D5A9F4F20E03FEF4FE79C
S113088057E4FC0160817181828193810E94E014AC
S113089018160CF04AC0CE01815B9F4F20E030E077
S11308A040E251E4FC0160817181828193810E9464
S11308B0E414DC01CB018E01095A1F4FBC01CD01A8
S11308C00E943F14DC01CB01F8019183808324C092
S11308D0CE01875A9F4F29E130E0FC013183208308
S11308E0CE01875A9F4FFC01808191810197F1F7D6
S11308F09E01275A3F4FF90191838083CE01895A83
S11309009F4F9E01295A3F4FF90120813181215087
S11309103109FC0131832083CE01895A9F4FFC01A8
S113092080819181892BA1F67BC08E01095A1F4FCA
S1130930CE018D5A9F4FFC01608171818281938128
S11309400E943F14DC01CB01F80191838083CE0126
S1130950855A9F4F9E01295A3F4FF90120813181C9
S1130960FC0131832083CE01855A9F4FFC01808195
S113097091810197F1F79E01255A3F4FF901918327
S113098080834EC0CE018A5B9F4F20E030E04FE76A
S113099053E4FC0160817181828193810E94E0149F
S11309A018166CF58E01035A1F4FCE01865B9F4FBC
S11309B0FC0160817181828193810E943F14DC017A
S11309C0CB01F80191838083CE01815A9F4F9E0110
S11309D0235A3F4FF90120813181FC013183208367
S11309E0CE01815A9F4FFC01808191810197F1F7DB
S11309F09E01215A3F4FF9019183808328C08E01C3
S1130A00025B1F4FCE018A5B9F4FFC0160817181A5
S1130A10828193810E943F14DC01CB01F801808321
S1130A20CE018F599F4F9E01225B3F4FF9012081D8
S1130A30FC012083CE018F599F4FFC018081282F18
S1130A402A95F1F7CE018F599F4FFC01208380E254
S1130A5090E0FC0180818295807F898382E091E02F
S1130A6022E031E0F90120812F7DFC01208380E028
S1130A7090E0A0E8BFE38E839F83A887B9872BEA21
S1130A803AEA4AEA5EE36E817F81888599850E940D
S1130A90E414DC01CB018AA79BA7ACA7BDA720E087
S1130AA030E040E85EE36E817F81888599850E940D
S1130AB0E414DC01CB018EA79FA7A8ABB9AB20E05F
S1130AC030E040E85FE36AA57BA58CA59DA50E9464
S1130AD0D31388231CF481E08AABD0C020E03FEF1D
S1130AE04FE757E46EA57FA588A999A90E94E01451
S1130AF018160CF085C020E030E04AE754E46E811B
S1130B007F81888599850E94D713DC01CB018BAB4B
S1130B109CABADABBEAB20E030E04AE753E46BA93D
S1130B207CA98DA99EA90E94E414DC01CB018FABA2
S1130B3098AFA9AFBAAF20E030E040E85FE36FA917
S1130B4078AD89AD9AAD0E94D31388232CF481E04B
S1130B5090E09CAF8BAF3FC020E03FEF4FE757E4FE
S1130B606FA978AD89AD9AAD0E94E01418164CF5C2
S1130B7020E030E040E251E46BA97CA98DA99EA954
S1130B800E94E414DC01CB01BC01CD010E943F149E
S1130B90DC01CB019CAF8BAF0FC089E190E09EAF2D
S1130BA08DAF8DAD9EAD0197F1F79EAF8DAF8BAD3F
S1130BB09CAD01979CAF8BAF8BAD9CAD892B69F736
S1130BC05DC06FA978AD89AD9AAD0E943F14DC0178
S1130BD0CB019CAF8BAF2BAD3CADCE01CF96FC01CE
S1130BE031832083CE01CF96FC01808191810197CE
S1130BF0F1F79E01215C3F4FF901918380833EC050
S1130C0020E030E04FE753E46AA57BA58CA59DA5C1
S1130C100E94E01418164CF58E010F5B1F4F6EA551
S1130C207FA588A999A90E943F14DC01CB01F80192
S1130C3091838083CE018D5B9F4F9E012F5B3F4F3D
S1130C40F90120813181FC0131832083CE018D5B48
S1130C509F4FFC01808191810197F1F79E012D5BEB
S1130C603F4FF901918380831CC06AA57BA58CA5A5
S1130C709DA50E943F14DC01CB018AABCE018B5BA6
S1130C809F4F2AA9FC012083CE018B5B9F4FFC015F
S1130C908081282F2A95F1F7CE018B5B9F4FFC01B1
S1130CA0208382E091E022E031E0F901208120629A
S1130CB0FC01208380E090E0A0E8BFE38A879B8763
S1130CC0AC87BD872BEA3AEA4AEA5EE36A857B850C
S1130CD08C859D850E94E414DC01CB018E879F875F
S1130CE0A88BB98B20E030E040E85EE36A857B8521
S1130CF08C859D850E94E414DC01CB018A8B9B8B3F
S1130D00AC8BBD8B20E030E040E85FE36E857F85EF
S1130D10888999890E94D31388231CF481E08E8BDF
S1130D20B2C020E03FEF4FE757E46A897B898C89A2
S1130D309D890E94E01418160CF07BC020E030E07E
S1130D404AE754E46A857B858C859D850E94D71388
S1130D50DC01CB018F8B988FA98FBA8F20E030E014
S1130D604AE753E46F89788D898D9A8D0E94E41443
S1130D70DC01CB018B8F9C8FAD8FBE8F20E030E0E8
S1130D8040E85FE36B8D7C8D8D8D9E8D0E94D31327
S1130D9088232CF481E090E098A38F8F3FC020E05B
S1130DA03FEF4FE757E46B8D7C8D8D8D9E8D0E94B8
S1130DB0E01418164CF520E030E040E251E46F896D
S1130DC0788D898D9A8D0E94E414DC01CB01BC01DD
S1130DD0CD010E943F14DC01CB0198A38F8F0FC07B
S1130DE089E190E09AA389A389A19AA10197F1F7D7
S1130DF09AA389A38F8D98A1019798A38F8F8F8D24
S1130E0098A1892B69F73FC06B8D7C8D8D8D9E8D4C
S1130E100E943F14DC01CB0198A38F8F8F8D98A182
S1130E209CA38BA38BA19CA10197F1F79CA38BA3FB
S1130E302AC020E030E04FE753E46E857F8588893F
S1130E4099890E94E0141816ACF46A897B898C890C
S1130E509D890E943F14DC01CB019EA38DA38DA12B
S1130E609EA198A78FA38FA198A50197F1F798A7A2
S1130E708FA30FC06E857F85888999890E943F144E
S1130E80DC01CB018E8B8E8989A789A58A95F1F720
S1130E9089A780E290E0FC018081882F90E08F7028
S1130EA09927982F8981892B898382E091E022E018
S1130EB031E0F90120812F7DFC0120838981CE5905
S1130EC0DF4F0FB6F894DEBF0FBECDBFDF91CF91D9
S1130ED01F910F9108951F93CF93DF93CDB7DEB782
S1130EE0A0970FB6F894DEBF0FBECDBF80E0DEDB67
S1130EF0182F812F8823D4F380E090E0A0E8B0E499
S1130F0089839A83AB83BC832BEA3AEA4AEA5EE399
S1130F1069817A818B819C810E94E414DC01CB017C
S1130F208D839E83AF83B88720E030E040E85EE3A2
S1130F3069817A818B819C810E94E414DC01CB015C
S1130F4089879A87AB87BC8720E030E040E85FE37D
S1130F506D817E818F8198850E94D31388231CF430
S1130F6081E08D87B2C020E03FEF4FE757E4698509
S1130F707A858B859C850E94E01418160CF07BC042
S1130F8020E030E04AE754E469817A818B819C81D6
S1130F900E94D713DC01CB018E879F87A88BB98B66
S1130FA020E030E04AE753E46E857F85888999899B
S1130FB00E94E414DC01CB018A8B9B8BAC8BBD8B30
S1130FC020E030E040E85FE36A897B898C899D8971
S1130FD00E94D31388232CF481E090E09F8B8E8BA6
S1130FE03FC020E03FEF4FE757E46A897B898C8953
S1130FF09D890E94E01418164CF520E030E040E290
S113100051E46E857F85888999890E94E414DC0106
S1131010CB01BC01CD010E943F14DC01CB019F8BAD
S11310208E8B0FC089E190E0998F888F888D998D80
S11310300197F1F7998F888F8E899F8901979F8BEC
S11310408E8B8E899F89892B69F73FC06A897B893A
S11310508C899D890E943F14DC01CB019F8B8E8B70
S11310608E899F899B8F8A8F8A8D9B8D0197F1F73B
S11310709B8F8A8F2AC020E030E04FE753E46D81D4
S11310807E818F8198850E94E0141816ACF46985DE
S11310907A858B859C850E943F14DC01CB019D8F52
S11310A08C8F8C8D9D8D9F8F8E8F8E8D9F8D0197B4
S11310B0F1F79F8F8E8F0FC06D817E818F81988510
S11310C00E943F14DC01CB018D878D8588A388A104
S11310D08A95F1F788A380E0E9DAA0960FB6F89430
S11310E0DEBF0FBECDBFDF91CF911F9108951F9337
S11310F0CF93DF931F92CDB7DEB789838981803484
S113110010F410E401C010E080E8810F06D0000064
S11311100F90DF91CF911F910895CF93DF931F928A
S1131120CDB7DEB78983D7DE60E0898168DA000055
S11311300F90DF91CF910895CF93DF931F921F9269
S1131140CDB7DEB789836A838A81882321F48981B4
S11311508058E3DF03C089818054DFDF00000F90F3
S11311600F90DF91CF910895CF93DF93CDB7DEB782
S113117081E0D3DF0000DF91CF910895CF93DF9317
S11311801F921F92CDB7DEB78A83A5DE89838A8139
S11311908A3019F48981ABDF03C061E08A812FDAD8
S11311A000000F900F90DF91CF9108951F93CF937C
S11311B0DF931F921F92CDB7DEB79A83898302C053
S11311C0812FDCDF89819A819C012F5F3F4F3A8315
S11311D02983FC011081112399F700000F900F90CF
S11311E0DF91CF911F9108950F931F93CF93DF93B6
S11311F0CDB7DEB7C15AD1090FB6F894DEBF0FBE22
S1131200CDBF9E012F553F4FF901808381E290E0CD
S113121021E230E0F90120812F60FC01208381E08C
S113122091E021E031E0F90120812860FC01208374
S113123081E091E021E031E0F90120812061FC01AD
S1131240208381E091E021E031E0F90120812062F6
S1131250FC01208380E090E0AAE7B6E489839A83C6
S1131260AB83BC838E010B571F4F2BEA3AEA4AEA41
S11312705EE369817A818B819C810E94E414DC01A4
S1131280CB01F80180839183A283B3838E01075736
S11312901F4F20E030E040E85EE369817A818B8172
S11312A09C810E94E414DC01CB01F80180839183CA
S11312B0A283B383CE018B579F4F20E030E040E8F8
S11312C05FE3FC0160817181828193810E94D31369
S11312D088233CF4CE0183579F4F21E0FC012083F7
S11312E02CC1CE0187579F4F20E03FEF4FE757E4D3
S11312F0FC0160817181828193810E94E01418163F
S11313000CF0CDC020E030E04AE754E469817A81F2
S11313108B819C810E94D713DC01CB019E01225753
S11313203F4FF90180839183A283B3838E010E56CC
S11313301F4FCE0182579F4F20E030E04AE753E42D
S1131340FC0160817181828193810E94E414DC013B
S1131350CB01F80180839183A283B383CE018E569F
S11313609F4F20E030E040E85FE3FC016081718141
S1131370828193810E94D31388234CF4CE018A5630
S11313809F4F21E030E0FC01318320836DC0CE010A
S11313908E569F4F20E03FEF4FE757E4FC016081FA
S11313A07181828193810E94E01418160CF04AC066
S11313B0CE0182579F4F20E030E040E251E4FC012F
S11313C060817181828193810E94E414DC01CB01EC
S11313D08E010A561F4FBC01CD010E943F14DC014F
S11313E0CB01F8019183808324C0CE0188569F4F9E
S11313F029E130E0FC0131832083CE0188569F4FE0
S1131400FC01808191810197F1F79E0128563F4F9D
S1131410F90191838083CE018A569F4F9E012A56FB
S11314203F4FF9012081318121503109FC01318381
S11314302083CE018A569F4FFC0180819181892BA4
S1131440A1F67BC08E010A561F4FCE018E569F4FC8
S1131450FC0160817181828193810E943F14DC01CF
S1131460CB01F80191838083CE0186569F4F9E0164
S11314702A563F4FF90120813181FC0131832083B9
S1131480CE0186569F4FFC01808191810197F1F72F
S11314909E0126563F4FF901918380834EC0CE01B1
S11314A08B579F4F20E030E04FE753E4FC0160810D
S11314B07181828193810E94E01418166CF58E016B
S11314C004561F4FCE0187579F4FFC0160817181E5
S11314D0828193810E943F14DC01CB01F801918346
S11314E08083CE0182569F4F9E0124563F4FF901BF
S11314F020813181FC0131832083CE0182569F4FAC
S1131500FC01808191810197F1F79E0122563F4FA2
S1131510F9019183808328C08E0103571F4FCE01A8
S11315208B579F4FFC0160817181828193810E945E
S11315303F14DC01CB01F8018083CE0180569F4F1C
S11315409E0123573F4FF9012081FC012083CE01E6
S113155080569F4FFC018081282F2A95F1F7CE01F8
S113156080569F4FFC01208382E290E022E230E02B
S1131570F90120812260FC01208382E290E022E2D2
S113158030E0F90120812160FC0120830E94EA01FE
S113159080E090E4ACE9B5E48D839E83AF83B887A3
S11315A08E0107591F4F2BEA3AEA4AEA5EE36D813E
S11315B07E818F8198850E94E414DC01CB01F801BF
S11315C080839183A283B3838E0103591F4F20E04C
S11315D030E040E85EE36D817E818F8198850E94D2
S11315E0E414DC01CB01F80180839183A283B383EB
S11315F0CE0187599F4F20E030E040E85FE3FC01D3
S113160060817181828193810E94D31388233CF489
S1131610CE018F589F4F21E0FC0120832CC1CE01C5
S113162083599F4F20E03FEF4FE757E4FC0160816F
S11316307181828193810E94E01418160CF0CDC050
S113164020E030E04AE754E46D817E818F81988503
S11316500E94D713DC01CB019E012E583F4FF901A4
S113166080839183A283B3838E010A581F4FCE01D6
S11316708E589F4F20E030E04AE753E4FC0160813C
S11316807181828193810E94E414DC01CB01F80111
S113169080839183A283B383CE018A589F4F20E035
S11316A030E040E85FE3FC016081718182819381D5
S11316B00E94D31388234CF4CE0186589F4F21E017
S11316C030E0FC01318320836DC0CE018A589F4FE6
S11316D020E03FEF4FE757E4FC0160817181828194
S11316E093810E94E01418160CF04AC0CE018E5863
S11316F09F4F20E030E040E251E4FC0160817181C1
S1131700828193810E94E414DC01CB018E0106588E
S11317101F4FBC01CD010E943F14DC01CB01F80135
S11317209183808324C0CE0184589F4F29E130E007
S1131730FC0131832083CE0184589F4FFC018081BA
S113174091810197F1F79E0124583F4FF90191834C
S11317508083CE0186589F4F9E0126583F4FF90142
S11317602081318121503109FC0131832083CE0154
S113177086589F4FFC0180819181892BA1F67BC003
S11317808E0106581F4FCE018A589F4FFC0160817D
S11317907181828193810E943F14DC01CB01F801A5
S11317A091838083CE0182589F4F9E0126583F4FDC
S11317B0F90120813181FC0131832083CE018258DB
S11317C09F4FFC01808191810197F1F79E0122587E
S11317D03F4FF901918380834EC0CE0187599F4FBB
S11317E020E030E04FE753E4FC01608171818281A5
S11317F093810E94E01418166CF58E0100581F4F57
S1131800CE0183599F4FFC01608171818281938154
S11318100E943F14DC01CB01F80191838083CE0147
S11318208E579F4F9E0120583F4FF90120813181EF
S1131830FC0131832083CE018E579F4FFC018081B0
S113184091810197F1F79E012E573F4FF901918342
S1131850808328C08E010F581F4FCE0187599F4F98
S1131860FC0160817181828193810E943F14DC01BB
S1131870CB01F8018083CE018C579F4F9E012F58D6
S11318803F4FF9012081FC012083CE018C579F4FEB
S1131890FC018081282F2A95F1F7CE018C579F4FA8
S11318A0FC0120830E94EA0180E090E0A0E8B2E419
S11318B089879A87AB87BC878E01035B1F4F2BEA0E
S11318C03AEA4AEA5EE369857A858B859C850E94BB
S11318D0E414DC01CB01F80180839183A283B383F8
S11318E08E010F5A1F4F20E030E040E85EE3698527
S11318F07A858B859C850E94E414DC01CB01F80178
S113190080839183A283B383CE01835B9F4F20E0C6
S113191030E040E85FE3FC01608171818281938162
S113192042D788233CF4CE018B5A9F4F21E0FC011F
S1131930208323C1CE018F5A9F4F20E03FEF4FE712
S113194057E4FC0160817181828193810E94E014DB
S113195018160CF0C7C020E030E04AE754E469856B
S11319607A858B859C8523D7DC01CB019E012A5A7D
S11319703F4FF90180839183A283B3838E01065A7A
S11319801F4FCE018A5A9F4F20E030E04AE753E4CC
S1131990FC0160817181828193810E94E414DC01E5
S11319A0CB01F80180839183A283B383CE01865A4D
S11319B09F4F20E030E040E85FE3FC0160817181EB
S11319C082819381F0D688234CF4CE01825A9F4FB2
S11319D021E030E0FC013183208369C0CE01865AC6
S11319E09F4F20E03FEF4FE757E4FC016081718196
S11319F082819381E5D718160CF048C0CE018A5A2B
S1131A009F4F20E030E040E251E4FC0160817181AD
S1131A1082819381D9D7DC01CB018E01025A1F4FF9
S1131A20BC01CD012CD7DC01CB01F801918380836B
S1131A3024C0CE01805A9F4F29E130E0FC0131835C
S1131A402083CE01805A9F4FFC01808191810197B0
S1131A50F1F79E01205A3F4FF90191838083CE0113
S1131A60825A9F4F9E01225A3F4FF90120813181B2
S1131A7021503109FC0131832083CE01825A9F4FCA
S1131A80FC0180819181892BA1F677C08E01025AD5
S1131A901F4FCE01865A9F4FFC0160817181828164
S1131AA09381EDD6DC01CB01F80191838083CE01D3
S1131AB08E599F4F9E01225A3F4FF9012081318157
S1131AC0FC0131832083CE018E599F4FFC0180811C
S1131AD091810197F1F79E012E593F4FF9019183AE
S1131AE080834BC0CE01835B9F4F20E030E04FE703
S1131AF053E4FC01608171818281938161D718165E
S1131B0064F58E010C591F4FCE018F5A9F4FFC0173
S1131B106081718182819381B2D6DC01CB01F801AD
S1131B2091838083CE018A599F4F9E012C593F4F48
S1131B30F90120813181FC0131832083CE018A594E
S1131B409F4FFC01808191810197F1F79E012A59F1
S1131B503F4FF9019183808327C08E010B5A1F4F99
S1131B60CE01835B9F4FFC016081718182819381EF
S1131B7086D6DC01CB01F8018083CE0188599F4FC2
S1131B809E012B5A3F4FF9012081FC012083CE0195
S1131B9088599F4FFC018081282F2A95F1F7CE01A7
S1131BA088599F4FFC0120830E94EA0180E090E065
S1131BB0A0E8B2E48D879E87AF87B88B2BEA3AEA18
S1131BC04AEA5EE36D857E858F859889FDD6DC01C2
S1131BD0CB0189AB9AABABABBCAB20E030E040E8C7
S1131BE05EE36D857E858F859889EED6DC01CB0119
S1131BF08DAB9EABAFABB8AF20E030E040E85FE325
S1131C0069A97AA98BA99CA9CED588231CF481E063
S1131C1089AFFEC020E03FEF4FE757E46DA97EA9EE
S1131C208FA998ADCDD618160CF0B7C020E030E0DF
S1131C304AE754E46D857E858F859889B8D5DC01A3
S1131C40CB018AAF9BAFACAFBDAF8E01025C1F4F1F
S1131C5020E030E04AE753E46AAD7BAD8CAD9DAD46
S1131C60B3D6DC01CB01F80180839183A283B383D3
S1131C70CE01CE9620E030E040E85FE3FC016081D5
S1131C807181828193818FD588234CF4CE018E5B40
S1131C909F4F21E030E0FC013183208363C0CE01FB
S1131CA0CE9620E03FEF4FE757E4FC01608171815D
S1131CB08281938185D618160CF044C020E030E070
S1131CC040E251E46AAD7BAD8CAD9DAD7DD6DC01C7
S1131CD0CB018E010E5B1F4FBC01CD01D0D5DC01C1
S1131CE0CB01F8019183808324C0CE018C5B9F4F8C
S1131CF029E130E0FC0131832083CE018C5B9F4FCE
S1131D00FC01808191810197F1F79E012C5B3F4F8B
S1131D10F90191838083CE018E5B9F4F9E012E5BE0
S1131D203F4FF9012081318121503109FC01318378
S1131D302083CE018E5B9F4FFC0180819181892B92
S1131D40A1F666C08E010E5B1F4FCE01CE96FC013C
S1131D50608171818281938192D5DC01CB01F8018C
S1131D6091838083CE018A5B9F4F9E012E5B3F4F00
S1131D70F90120813181FC0131832083CE018A5B0A
S1131D809F4FFC01808191810197F1F79E012A5BAD
S1131D903F4FF901918380833BC020E030E04FE75F
S1131DA053E469A97AA98BA99CA90AD6181644F503
S1131DB08E01085B1F4F6DA97EA98FA998AD5FD5D1
S1131DC0DC01CB01F80191838083CE01865B9F4FB8
S1131DD09E01285B3F4FF90120813181FC01318351
S1131DE02083CE01865B9F4FFC0180819181019706
S1131DF0F1F79E01265B3F4FF901918380831BC05D
S1131E0069A97AA98BA99CA93AD5DC01CB0189AF30
S1131E10CE01845B9F4F29ADFC012083CE01845BFE
S1131E209F4FFC018081282F2A95F1F7CE01845B16
S1131E309F4FFC01208382E290E022E230E0F9012E
S1131E4020812E7FFC0120830E94EA0180E090E043
S1131E50A0E8B2E4898B9A8BAB8BBC8B2BEA3AEA71
S1131E604AEA5EE369897A898B899C89ADD5DC016C
S1131E70CB018D8B9E8BAF8BB88F20E030E040E898
S1131E805EE369897A898B899C899ED5DC01CB01C3
S1131E90898F9A8FAB8FBC8F20E030E040E85FE3FE
S1131EA06D897E898F89988D7ED488231CF481E086
S1131EB08D8FA7C020E03FEF4FE757E4698D7A8DFF
S1131EC08B8D9C8D7DD518160CF074C020E030E00D
S1131ED04AE754E469897A898B899C8968D4DC014E
S1131EE0CB018E8F9F8FA8A3B9A320E030E04AE7EF
S1131EF053E46E8D7F8D88A199A166D5DC01CB0159
S1131F008AA39BA3ACA3BDA320E030E040E85FE339
S1131F106AA17BA18CA19DA146D488232CF481E0E5
S1131F2090E09FA38EA33BC020E03FEF4FE757E430
S1131F306AA17BA18CA19DA143D518163CF520E094
S1131F4030E040E251E46E8D7F8D88A199A13CD5AB
S1131F50DC01CB01BC01CD0192D4DC01CB019FA3F8
S1131F608EA30FC089E190E099A788A788A599A5B9
S1131F700197F1F799A788A78EA19FA101979FA325
S1131F808EA38EA19FA1892B69F73BC06AA17BA177
S1131F908CA19DA174D4DC01CB019FA38EA38EA13F
S1131FA09FA19BA78AA78AA59BA50197F1F79BA749
S1131FB08AA727C020E030E04FE753E46D897E898B
S1131FC08F89988DFDD41816A4F4698D7A8D8B8D24
S1131FD09C8D55D4DC01CB019DA78CA78CA59DA518
S1131FE09FA78EA78EA59FA50197F1F79FA78EA700
S1131FF00EC06D897E898F89988D41D4DC01CB0117
S11320008D8F8D8D88AB88A98A95F1F788AB88E28E
S113201084D888E082D8A8D886E07FD8CE018F55AE
S11320209F4FFC01808179D80000CF55DF4F0FB658
S1132030F894DEBF0FBECDBFDF91CF911F910F91FA
S11320400895CF93DF93CDB7DEB702D019D0FECF7A
S1132050CF93DF931F921F92CDB7DEB78FE0C4D822
S113206082E092E09A83898389819A819FD80E9431
S11320700C017ED300000F900F90DF91CF91089553
S1132080CF93DF93CDB7DEB76E970FB6F894DEBF6C
S11320900FBECDBF19820BC08981882F90E0865B6B
S11320A09D4F2EE2FC01208389818F5F8983898182
S11320B0893090F31A8225C18A81882F90E0833079
S11320C0910579F08630910509F482C0892B09F0D5
S11320D0F6C04AD88AE092E069D861E08DE02CD855
S11320E000C180E090E0AAEFB3E48F839887A987CA
S11320F0BA8720E030E04AE755E46F817885898526
S11321009A8562D4DC01CB018B879C87AD87BE871F
S113211020E030E040E85FE36B857C858D859E851B
S113212042D388232CF481E090E0988B8F873BC0C6
S113213020E03FEF4FE757E46B857C858D859E85D6
S11321403FD418163CF520E030E040E251E46F81C2
S1132150788589859A8538D4DC01CB01BC01CD0111
S11321608ED3DC01CB01988B8F870FC080E991E07F
S11321709A8B898B89899A890197F1F79A8B898B34
S11321808F8598890197988B8F878F859889892B5C
S113219069F713C06B857C858D859E8570D3DC01C2
S11321A0CB01988B8F878F8598899C8B8B8B8B89A0
S11321B09C890197F1F79C8B8B8B0E94B40887E173
S11321C092E00E94D60861E08DE00E949C0889C0DC
S11321D080E090E0AAEFB3E48B839C83AD83BE835D
S11321E020E030E04AE755E46B817C818D819E815B
S11321F0EBD3DC01CB018D8B9E8BAF8BB88F20E0B2
S113220030E040E85FE36D897E898F89988DCBD279
S113221088232CF481E090E09A8F898F3BC020E0E2
S11322203FEF4FE757E46D897E898F89988DC8D336
S113223018163CF520E030E040E251E46B817C81EB
S11322408D819E81C1D3DC01CB01BC01CD0117D3AB
S1132250DC01CB019A8F898F0FC080E991E09C8FBC
S11322608B8F8B8D9C8D0197F1F79C8F8B8F898D34
S11322709A8D01979A8F898F898D9A8D892B69F709
S113228013C06D897E898F89988DF9D2DC01CB01C9
S11322909A8F898F898D9A8D9E8F8D8F8D8D9E8D2E
S11322A00197F1F79E8F8D8F0E94B40886E292E029
S11322B00E94D60861E08DE00E949C0812C02A8129
S11322C08BEA289F812D1124982F9695892F880FAA
S11322D0890F922F981B8DE0890F61E00E949C0862
S11322E000008A81882F90E01BD08A81882F90E09B
S11322F0865B9D4FFC0180810E94BE088A818F5FAE
S11323008A838A81893008F4D7CEA7D000006E96DC
S11323100FB6F894DEBF0FBECDBFDF91CF91089505
S11323200F931F93CF93DF93CDB7DEB72F970FB6DD
S1132330F894DEBF0FBECDBF8F8779C080E090E0F8
S1132340A8ECB2E489839A83AB83BC8320E030E0B9
S11323504AE755E469817A818B819C8135D3DC011C
S1132360CB018D839E83AF83B88720E030E040E8C3
S11323705FE36D817E818F81988515D288232CF44B
S113238081E090E09A8789873BC020E03FEF4FE7E8
S113239057E46D817E818F81988512D318163CF5A0
S11323A020E030E040E251E469817A818B819C81B4
S11323B00BD3DC01CB01BC01CD0161D2DC01CB012B
S11323C09A8789870FC080E991E09C878B878B85EA
S11323D09C850197F1F79C878B8789859A8501975E
S11323E09A87898789859A85892B69F713C06D81B6
S11323F07E818F81988543D2DC01CB019A878987BE
S113240089859A859E878D878D859E850197F1F7AD
S11324109E878D870E9422018F85082F10E00E94DD
S11324207E01282FC801865B9D4FFC0120838F8588
S1132430882F90E0865B9D4FFC0180818E3209F4E9
S11324407DCF00002F960FB6F894DEBF0FBECDBF30
S1132450DF91CF911F910F910895CF93DF931F9236
S11324601F92CDB7DEB78AE492E0A8D09A8389831D
S113247089819A81992324F489819A810AD003C09D
S11324808AE492E034D100000F900F90DF91CF9155
S11324900895CF93DF93CDB7DEB769970FB6F8945D
S11324A0DEBF0FBECDBF998F888F0E94B40884E32E
S11324B092E00E94D6089E01215F3F4F888D998D3E
S11324C04AE050E0B901EBD2CE010F960E94D60843
S11324D080E090E4ACE1B5E489839A83AB83BC8368
S11324E020E030E04AE755E469817A818B819C8160
S11324F06BD2DC01CB018D839E83AF83B88720E050
S113250030E040E85FE36D817E818F8198854BD117
S113251088232CF481E090E09A8789873BC020E0EF
S11325203FEF4FE757E46D817E818F81988548D2D4
S113253018163CF520E030E040E251E469817A81EC
S11325408B819C8141D2DC01CB01BC01CD0197D1AF
S1132550DC01CB019A8789870FC080E991E09C87D1
S11325608B878B859C850197F1F79C878B87898561
S11325709A8501979A87898789859A85892B69F72E
S113258013C06D817E818F81988579D1DC01CB0167
S11325909A87898789859A859E878D878D859E856B
S11325A00197F1F79E878D87000069960FB6F8941E
S11325B0DEBF0FBECDBFDF91CF910895CF93DF93E0
S11325C000D01F921F92CDB7DEB79D838C831982F2
S11325D014C08981882F90E02C813D81820F931F44
S11325E019D09B838A838A819B8199231CF48A81D5
S11325F09B8108C089818D5F89838981893048F3F3
S113260080E090E00F900F900F900F900F90DF916B
S1132610CF910895CF93DF9300D01F921F92CDB72F
S1132620DEB79D838C8319821CC08981882F90E03A
S11326302C813D81820F931FFC018081803358F0EF
S11326408981882F90E02C813D81820F931FFC01AA
S113265080818A3318F08FEF9FEF41C089818F5FAB
S113266089838981833008F38C819D81FC01808179
S1132670882F90E0C09744E6489F9001499F300D11
S113268011248C819D810196FC018081882F90E02A
S1132690C097880F991FAC01440F551F440F551F55
S11326A0840F951F280F391F8C819D810296FC0190
S11326B08081882F90E0C097820F931F9B838A8329
S11326C08A819B818F3F910509F024F48A819B8143
S11326D099231CF48EEF9FEF02C08A819B810F9097
S11326E00F900F900F900F90DF91CF910895CF939B
S11326F0DF9300D01F92CDB7DEB79C838B8383E535
S11327008A838A811AD019820DC08981882F90E02A
S11327102B813C81820F931FFC0180810ED0898123
S11327208F5F89838981893080F300000F900F9037
S11327300F900F90DF91CF910895CF93DF931F9265
S1132740CDB7DEB78983000080EC90E0FC01808186
S1132750882F90E080729927892BB1F386EC90E062
S11327602981FC01208300000F90DF91CF9108950F
S1132770CF93DF93CDB7DEB785EC90E0FC011082F8
S113278084EC90E027E6FC01208381EC90E028E1D2
S1132790FC01208382EC90E026E0FC012083000011
S11327A0DF91CF91089597D008F481E008950CD07B
S11327B0CDC0C5D040F0BCD030F021F45F3F19F05B
S11327C0AEC05111F7C0B1C0D2D098F39923C9F368
S11327D05523B1F3951B550BBB27AA276217730723
S11327E0840738F09F5F5F4F220F331F441FAA1FD7
S11327F0A9F333D00E2E3AF0E0E830D09150504097
S1132800E695001CCAF729D0FE2F27D0660F771F44
S1132810881FBB1F261737074807AB07B0E809F026
S1132820BB0B802DBF01FF2793585F4F2AF09E3FBB
S1132830510568F074C0BEC05F3FECF3983EDCF312
S1132840869577956795B795F7959F5FC9F7880F34
S1132850911D9695879597F90895E1E0660F771F86
S1132860881FBB1F621773078407BA0720F0621B17
S1132870730B840BBA0BEE1F88F7E09508957FD095
S113288088F09F5790F0B92F9927B751A0F0D1F055
S1132890660F771F881F991F1AF0BA95C9F712C0DF
S11328A0B13081F086D0B1E0089583C0672F782FCE
S11328B08827B85F39F0B93FCCF38695779567954B
S11328C0B395D9F73EF490958095709561957F4FB7
S11328D08F4F9F4F0895990F0008550FAA0BE0E8FA
S11328E0FEEF16161706E807F907C0F012161306CE
S11328F0E407F50798F0621B730B840B950B39F40E
S11329000A2661F0232B242B252B21F408950A2673
S113291009F4A140A6958FEF811D811D089597F9B3
S11329209F6780E870E060E008959FEF80EC089571
S113293000240A941616170618060906089500249A
S11329400A9412161306140605060895092E039414
S1132950000C11F4882352F0BB0F40F4BF2B11F488
S113296060FF04C06F5F7F4F8F4F9F4F089557FDE7
S11329709058440F551F59F05F3F71F04795880FE9
S113298097FB991F61F09F3F79F087950895121680
S113299013061406551FF2CF4695F1DF08C016162C
S11329A017061806991FF1CF8695710561050894DD
S11329B00895E894BB2766277727CB0197F90895F4
S11329C08ADF08F48FEF08950BD0C0CFB1DF28F071
S11329D0B6DF18F0952309F0A2CFA7CF1124EACFD0
S11329E0C6DFA0F3959FD1F3950F50E0551F629F6A
S11329F0F001729FBB27F00DB11D639FAA27F00D54
S1132A00B11DAA1F649F6627B00DA11D661F829F7A
S1132A102227B00DA11D621F739FB00DA11D621F5F
S1132A20839FA00D611D221F749F3327A00D611D7C
S1132A30231F849F600D211D822F762F6A2F11245E
S1132A409F5750408AF0E1F088234AF0EE0FFF1FB1
S1132A50BB1F661F771F881F91505040A9F79E3FE8
S1132A60510570F05CCFA6CF5F3FECF3983EDCF3EA
S1132A70869577956795B795F795E7959F5FC1F725
S1132A80FE2B880F911D9695879597F90895EE0F63
S1132A90FF1F881F8BBF0790F691E02D19944532D4
S1132AA0510518F4423008F004C0FB011082CB0138
S1132AB00895BB274A3031F4992322F4BDE290955E
S1132AC081959F4F01C0BB27FB015527AA27880F7B
S1132AD0991FAA1FA41710F0A41B83955051B9F78E
S1132AE0A05DAA3308F0A95DA193009779F7B1110D
S1132AF0B1931192CB0100C0DC01FC01672F7191ED
S1132B007723E1F7329704C07C916D9370836291CF
S10F2B10AE17BF07C8F30895F894FFCF78
S1132B1C010057656C636F6D6500436F6C6F723A9F
S1132B2C0A5265643A2000436F6C6F723A0A47721A
S1132B3C65656E3A2000436F6C6F723A0A426C758D
S1132B4C653A20004E6F20636F6C6F72207365744E
S10D2B5C2C0A4572726F723A2000D1
S9030000FC
