S019000050726F6A6563744A6F616368696D4855452E7372656397
S1130000E9C0000000C10000FEC00000FCC0000008
S1130010FAC00000F8C00000F6C00000F4C0000000
S1130020F2C00000F0C00000EEC00000ECC0000010
S1130030EAC00000E8C00000E6C00000E4C0000020
S1130040E2C00000E0C00000DEC00000DCC0000030
S1130050DAC00000D8C00000D6C00000D4C0000040
S1130060D2C00000D0C00000CEC00000CCC0000050
S1130070CAC00000C8C00000C6C00000C4C0000060
S1130080C2C00000C0C00000BEC00000BCC0000070
S1130090BAC00000B8C00000B6C00000B4C0000080
S11300A0B2C00000B0C00000AEC00000ACC0000090
S11300B0AAC00000A8C00000A6C00000A4C00000A0
S11300C0A2C00000A0C000009EC000009CC00000B0
S11300D09AC0000098C0000096C0000094C00000C0
S11300E092C00000A901D901D901D901B501D901F2
S11300F0C101CD01D901D901D901D901D901D90150
S1130100D901D901D901D901D901D901D901D9011B
S1130110D901D901D901D901D901D901D901D9010B
S1130120D901D901D901D901D901D901D901D901FB
S1130130D901D901D901D901D901D901D901D901EB
S1130140D901D901D901D901D901D901D901D901DB
S1130150D901D901D901D901D901D901D901D901CB
S1130160D901D901AC01D901D901D901B801D90109
S1130170C401D001D901D901D901D901D901D901C9
S1130180D901D901D901D901D901D901D901D9019B
S1130190D901D901D901D901D901D901D901D9018B
S11301A0D901D901AF01D901D901D901BB01D901C3
S11301B0C701D301D901D901D901D901D901D90183
S11301C0D901D901B201D901D901D901BE01D9019D
S11301D0CA01D60111241FBECFEFD1E2DEBFCDBFCD
S11301E000E00CBF12E0A0E0B2E0EEE8FAE200E0CA
S11301F00BBF02C007900D92A435B107D9F70E9436
S113020015100C944515FCCECF93DF93CDB7DEB714
S113021087E091E02FE0FC01208388E091E028E072
S113022031E0F9012081206FFC0120830000DF917F
S1130230CF910895CF93DF931F92CDB7DEB788E0B7
S113024091E0FC018081807F8983809100029091FC
S1130250010282309105A9F0833091051CF40197C5
S113026039F02AC083309105A9F00497E1F024C045
S113027089818760898388E091E02981FC0120835A
S11302801BC089818B60898388E091E02981FC010E
S1130290208312C089818D60898388E091E029815F
S11302A0FC01208309C089818E60898388E091E004
S11302B02981FC01208300008091000290910102B9
S11302C00196909301028093000280910002909124
S11302D00102059734F081E090E09093010280934D
S11302E0000200000F90DF91CF910895CF93DF9328
S11302F01F92CDB7DEB786E091E0FC01808189834F
S11303008981803F18F4898106D001C08EE20F9064
S1130310DF91CF910895CF93DF931F921F92CDB7B2
S1130320DEB78A838A81882F90E0092E000CAA0BFD
S1130330BB0B47E750E027E730E0841B950B2817F9
S11303403907B8F1FC018827EE58FF4F8F4F0C9402
S1130350001581E3898330C084E389832DC087E35A
S113036089832AC08AE2898327C082E3898324C0DF
S113037085E3898321C088E389831EC080E3898360
S11303801BC083E3898318C086E3898315C089E38E
S1130390898312C083E289830FC081E489830CC0FE
S11303A082E4898309C083E4898306C084E4898361
S11303B003C08EE28983000089810F900F90DF9142
S11303C0CF910895CF93DF93CDB7DEB7A0970FB643
S11303D0F894DEBF0FBECDBF82E091E022E031E0B1
S11303E0F90120812062FC01208380E090E0A0E8F4
S11303F0BFE389839A83AB83BC832BEA3AEA4AEA54
S11304005EE369817A818B819C810E949D14DC0169
S1130410CB018D839E83AF83B88720E030E040E832
S11304205EE369817A818B819C810E949D14DC0149
S1130430CB0189879A87AB87BC8720E030E040E80E
S11304405FE36D817E818F8198850E948C13882360
S11304501CF481E08D87B2C020E03FEF4FE757E402
S113046069857A858B859C850E94991418160CF0F1
S11304707BC020E030E04AE754E469817A818B81D3
S11304809C810E949013DC01CB018E879F87A88BEF
S1130490B98B20E030E04AE753E46E857F85888994
S11304A099890E949D14DC01CB018A8B9B8BAC8BB8
S11304B0BD8B20E030E040E85FE36A897B898C896A
S11304C09D890E948C1388232CF481E090E09F8BFB
S11304D08E8B3FC020E03FEF4FE757E46A897B896A
S11304E08C899D890E94991418164CF520E030E0FF
S11304F040E251E46E857F85888999890E949D1424
S1130500DC01CB01BC01CD010E94F813DC01CB015D
S11305109F8B8E8B0FC089E190E0998F888F888D97
S1130520998D0197F1F7998F888F8E899F8901970B
S11305309F8B8E8B8E899F89892B69F73FC06A892F
S11305407B898C899D890E94F813DC01CB019F8BE8
S11305508E8B8E899F899B8F8A8F8A8D9B8D019725
S1130560F1F79B8F8A8F2AC020E030E04FE753E4F5
S11305706D817E818F8198850E9499141816ACF440
S113058069857A858B859C850E94F813DC01CB01F3
S11305909D8F8C8F8C8D9D8D9F8F8E8F8E8D9F8D3B
S11305A00197F1F79F8F8E8F0FC06D817E818F81B0
S11305B098850E94F813DC01CB018D878D8588A373
S11305C088A18A95F1F788A382E091E022E031E0E6
S11305D0F90120812F7DFC0120830000A0960FB635
S11305E0F894DEBF0FBECDBFDF91CF910895CF93B6
S11305F0DF9300D0CDB7DEB78A836B838B818823EA
S113060051F082E091E022E031E0F901208128609C
S1130610FC01208309C082E091E022E031E0F9018D
S11306202081277FFC01208382E091E022E031E0F9
S1130630F90120812F7EFC01208381E290E021E2F8
S113064030E0F90120812F60FC01208382E290E0F8
S1130650FC018081807F898382E290E02A81229557
S11306602F70322F2981232BFC012083ABDE82E201
S113067090E02A81322F3F702981232BFC012083B3
S1130680A1DE82E290E029812F60FC01208300003A
S11306900F900F900F90DF91CF9108950F931F93B8
S11306A0CF93DF93CDB7DEB7C256D1090FB6F89416
S11306B0DEBF0FBECDBF9E012E593F4FF90180838F
S11306C0CE018E599F4FFC018081882351F082E036
S11306D091E022E031E0F90120812860FC012083CF
S11306E009C082E091E022E031E0F9012081277F16
S11306F0FC01208382E091E022E031E0F9012081D5
S11307002061FC01208381E290E021E230E0F901E4
S11307102081207FFC01208382E091E022E031E00F
S1130720F90120812062FC01208380E090E0A0E8B0
S1130730BFE38A839B83AC83BD838E010A5B1F4F17
S11307402BEA3AEA4AEA5EE36A817B818C819D81E5
S11307500E949D14DC01CB01F80180839183A28364
S1130760B3838E01065B1F4F20E030E040E85EE378
S11307706A817B818C819D810E949D14DC01CB0167
S1130780F80180839183A283B383CE018A5B9F4F58
S113079020E030E040E85FE3FC0160817181828108
S11307A093810E948C1388233CF4CE01825B9F4F7B
S11307B021E0FC0120832CC1CE01865B9F4F20E009
S11307C03FEF4FE757E4FC0160817181828193819F
S11307D00E94991418160CF0CDC020E030E04AE7CE
S11307E054E46A817B818C819D810E949013DC0199
S11307F0CB019E01215B3F4FF90180839183A2834A
S1130800B3838E010D5A1F4FCE01815B9F4F20E0B1
S113081030E04AE753E4FC01608171818281938175
S11308200E949D14DC01CB01F80180839183A28393
S1130830B383CE018D5A9F4F20E030E040E85FE360
S1130840FC0160817181828193810E948C138823D1
S11308504CF4CE01895A9F4F21E030E0FC013183F2
S113086020836DC0CE018D5A9F4F20E03FEF4FE7AC
S113087057E4FC0160817181828193810E94991403
S113088018160CF04AC0CE01815B9F4F20E030E087
S113089040E251E4FC0160817181828193810E9474
S11308A09D14DC01CB018E01095A1F4FBC01CD01FF
S11308B00E94F813DC01CB01F8019183808324C0EA
S11308C0CE01875A9F4F29E130E0FC013183208318
S11308D0CE01875A9F4FFC01808191810197F1F7E6
S11308E09E01275A3F4FF90191838083CE01895A93
S11308F09F4F9E01295A3F4FF90120813181215098
S11309003109FC0131832083CE01895A9F4FFC01B8
S113091080819181892BA1F67BC08E01095A1F4FDA
S1130920CE018D5A9F4FFC01608171818281938138
S11309300E94F813DC01CB01F80191838083CE017E
S1130940855A9F4F9E01295A3F4FF90120813181D9
S1130950FC0131832083CE01855A9F4FFC018081A5
S113096091810197F1F79E01255A3F4FF901918337
S113097080834EC0CE018A5B9F4F20E030E04FE77A
S113098053E4FC0160817181828193810E949914F6
S113099018166CF58E01035A1F4FCE01865B9F4FCC
S11309A0FC0160817181828193810E94F813DC01D2
S11309B0CB01F80191838083CE01815A9F4F9E0120
S11309C0235A3F4FF90120813181FC013183208377
S11309D0CE01815A9F4FFC01808191810197F1F7EB
S11309E09E01215A3F4FF9019183808328C08E01D3
S11309F0025B1F4FCE018A5B9F4FFC0160817181B6
S1130A00828193810E94F813DC01CB01F801808379
S1130A10CE018F599F4F9E01225B3F4FF9012081E8
S1130A20FC012083CE018F599F4FFC018081282F28
S1130A302A95F1F7CE018F599F4FFC01208380E264
S1130A4090E0FC0180818295807F898382E091E03F
S1130A5022E031E0F90120812F7DFC01208380E038
S1130A6090E0A0E8BFE38E839F83A887B9872BEA31
S1130A703AEA4AEA5EE36E817F81888599850E941D
S1130A809D14DC01CB018AA79BA7ACA7BDA720E0DE
S1130A9030E040E85EE36E817F81888599850E941D
S1130AA09D14DC01CB018EA79FA7A8ABB9AB20E0B6
S1130AB030E040E85FE36AA57BA58CA59DA50E9474
S1130AC08C1388231CF481E08AABD0C020E03FEF74
S1130AD04FE757E46EA57FA588A999A90E949914A8
S1130AE018160CF085C020E030E04AE754E46E812B
S1130AF07F81888599850E949013DC01CB018BABA3
S1130B009CABADABBEAB20E030E04AE753E46BA94D
S1130B107CA98DA99EA90E949D14DC01CB018FABF9
S1130B2098AFA9AFBAAF20E030E040E85FE36FA927
S1130B3078AD89AD9AAD0E948C1388232CF481E0A2
S1130B4090E09CAF8BAF3FC020E03FEF4FE757E40E
S1130B506FA978AD89AD9AAD0E94991418164CF519
S1130B6020E030E040E251E46BA97CA98DA99EA964
S1130B700E949D14DC01CB01BC01CD010E94F8133D
S1130B80DC01CB019CAF8BAF0FC089E190E09EAF3D
S1130B908DAF8DAD9EAD0197F1F79EAF8DAF8BAD4F
S1130BA09CAD01979CAF8BAF8BAD9CAD892B69F746
S1130BB05DC06FA978AD89AD9AAD0E94F813DC01D0
S1130BC0CB019CAF8BAF2BAD3CADCE01CF96FC01DE
S1130BD031832083CE01CF96FC01808191810197DE
S1130BE0F1F79E01215C3F4FF901918380833EC060
S1130BF020E030E04FE753E46AA57BA58CA59DA5D2
S1130C000E94991418164CF58E010F5B1F4F6EA5A8
S1130C107FA588A999A90E94F813DC01CB01F801EA
S1130C2091838083CE018D5B9F4F9E012F5B3F4F4D
S1130C30F90120813181FC0131832083CE018D5B58
S1130C409F4FFC01808191810197F1F79E012D5BFB
S1130C503F4FF901918380831CC06AA57BA58CA5B5
S1130C609DA50E94F813DC01CB018AABCE018B5BFE
S1130C709F4F2AA9FC012083CE018B5B9F4FFC016F
S1130C808081282F2A95F1F7CE018B5B9F4FFC01C1
S1130C90208382E091E022E031E0F90120812062AA
S1130CA0FC01208380E090E0A0E8BFE38A879B8773
S1130CB0AC87BD872BEA3AEA4AEA5EE36A857B851C
S1130CC08C859D850E949D14DC01CB018E879F87B6
S1130CD0A88BB98B20E030E040E85EE36A857B8531
S1130CE08C859D850E949D14DC01CB018A8B9B8B96
S1130CF0AC8BBD8B20E030E040E85FE36E857F8500
S1130D00888999890E948C1388231CF481E08E8B36
S1130D10B2C020E03FEF4FE757E46A897B898C89B2
S1130D209D890E94991418160CF07BC020E030E0D5
S1130D304AE754E46A857B858C859D850E949013DF
S1130D40DC01CB018F8B988FA98FBA8F20E030E024
S1130D504AE753E46F89788D898D9A8D0E949D149A
S1130D60DC01CB018B8F9C8FAD8FBE8F20E030E0F8
S1130D7040E85FE36B8D7C8D8D8D9E8D0E948C137E
S1130D8088232CF481E090E098A38F8F3FC020E06B
S1130D903FEF4FE757E46B8D7C8D8D8D9E8D0E94C8
S1130DA0991418164CF520E030E040E251E46F89C4
S1130DB0788D898D9A8D0E949D14DC01CB01BC0134
S1130DC0CD010E94F813DC01CB0198A38F8F0FC0D3
S1130DD089E190E09AA389A389A19AA10197F1F7E7
S1130DE09AA389A38F8D98A1019798A38F8F8F8D34
S1130DF098A1892B69F73FC06B8D7C8D8D8D9E8D5D
S1130E000E94F813DC01CB0198A38F8F8F8D98A1DA
S1130E109CA38BA38BA19CA10197F1F79CA38BA30B
S1130E202AC020E030E04FE753E46E857F8588894F
S1130E3099890E9499141816ACF46A897B898C8963
S1130E409D890E94F813DC01CB019EA38DA38DA183
S1130E509EA198A78FA38FA198A50197F1F798A7B2
S1130E608FA30FC06E857F85888999890E94F813A6
S1130E70DC01CB018E8B8E8989A789A58A95F1F730
S1130E8089A780E290E0FC018081882F90E08F7038
S1130E909927982F8981892B898382E091E022E028
S1130EA031E0F90120812F7DFC0120838981CE5915
S1130EB0DF4F0FB6F894DEBF0FBECDBFDF91CF91E9
S1130EC01F910F9108951F93CF93DF93CDB7DEB792
S1130ED0A0970FB6F894DEBF0FBECDBF80E0DEDB77
S1130EE0182F812F8823D4F380E090E0A0E8B0E4A9
S1130EF089839A83AB83BC832BEA3AEA4AEA5EE3AA
S1130F0069817A818B819C810E949D14DC01CB01D3
S1130F108D839E83AF83B88720E030E040E85EE3B2
S1130F2069817A818B819C810E949D14DC01CB01B3
S1130F3089879A87AB87BC8720E030E040E85FE38D
S1130F406D817E818F8198850E948C1388231CF487
S1130F5081E08D87B2C020E03FEF4FE757E4698519
S1130F607A858B859C850E94991418160CF07BC099
S1130F7020E030E04AE754E469817A818B819C81E6
S1130F800E949013DC01CB018E879F87A88BB98BBD
S1130F9020E030E04AE753E46E857F8588899989AB
S1130FA00E949D14DC01CB018A8B9B8BAC8BBD8B87
S1130FB020E030E040E85FE36A897B898C899D8981
S1130FC00E948C1388232CF481E090E09F8B8E8BFD
S1130FD03FC020E03FEF4FE757E46A897B898C8963
S1130FE09D890E94991418164CF520E030E040E2E7
S1130FF051E46E857F85888999890E949D14DC015E
S1131000CB01BC01CD010E94F813DC01CB019F8B05
S11310108E8B0FC089E190E0998F888F888D998D90
S11310200197F1F7998F888F8E899F8901979F8BFC
S11310308E8B8E899F89892B69F73FC06A897B894A
S11310408C899D890E94F813DC01CB019F8B8E8BC8
S11310508E899F899B8F8A8F8A8D9B8D0197F1F74B
S11310609B8F8A8F2AC020E030E04FE753E46D81E4
S11310707E818F8198850E9499141816ACF4698535
S11310807A858B859C850E94F813DC01CB019D8FAA
S11310908C8F8C8D9D8D9F8F8E8F8E8D9F8D0197C4
S11310A0F1F79F8F8E8F0FC06D817E818F81988520
S11310B00E94F813DC01CB018D878D8588A388A15C
S11310C08A95F1F788A380E0E9DAA0960FB6F89440
S11310D0DEBF0FBECDBFDF91CF911F9108951F9347
S11310E0CF93DF931F92CDB7DEB789838981803494
S11310F010F410E401C010E080E8810F06D0000075
S11311000F90DF91CF911F910895CF93DF931F929A
S1131110CDB7DEB78983D7DE60E0898168DA000065
S11311200F90DF91CF910895CF93DF931F921F9279
S1131130CDB7DEB789836A838A81882321F48981C4
S11311408058E3DF03C089818054DFDF00000F9003
S11311500F90DF91CF910895CF93DF93CDB7DEB792
S113116081E0D3DF0000DF91CF910895CF93DF9327
S11311701F921F92CDB7DEB78A83A5DE89838A8149
S11311808A3019F48981ABDF03C061E08A812FDAE8
S113119000000F900F90DF91CF9108951F93CF938C
S11311A0DF931F921F92CDB7DEB79A83898302C063
S11311B0812FDCDF89819A819C012F5F3F4F3A8325
S11311C02983FC011081112399F700000F900F90DF
S11311D0DF91CF911F9108950F931F93CF93DF93C6
S11311E0CDB7DEB7C15AD1090FB6F894DEBF0FBE32
S11311F0CDBF9E012F553F4FF901808381E290E0DE
S113120021E230E0F90120812F60FC01208381E09C
S113121091E021E031E0F90120812860FC01208384
S113122081E091E021E031E0F90120812061FC01BD
S1131230208381E091E021E031E0F9012081206206
S1131240FC01208380E090E0AAE7B6E489839A83D6
S1131250AB83BC838E010B571F4F2BEA3AEA4AEA51
S11312605EE369817A818B819C810E949D14DC01FB
S1131270CB01F80180839183A283B3838E01075746
S11312801F4F20E030E040E85EE369817A818B8182
S11312909C810E949D14DC01CB01F8018083918321
S11312A0A283B383CE018B579F4F20E030E040E808
S11312B05FE3FC0160817181828193810E948C13C0
S11312C088233CF4CE0183579F4F21E0FC01208307
S11312D02CC1CE0187579F4F20E03FEF4FE757E4E3
S11312E0FC0160817181828193810E949914181696
S11312F00CF0CDC020E030E04AE754E469817A8103
S11313008B819C810E949013DC01CB019E012257AA
S11313103F4FF90180839183A283B3838E010E56DC
S11313201F4FCE0182579F4F20E030E04AE753E43D
S1131330FC0160817181828193810E949D14DC0192
S1131340CB01F80180839183A283B383CE018E56AF
S11313509F4F20E030E040E85FE3FC016081718151
S1131360828193810E948C1388234CF4CE018A5687
S11313709F4F21E030E0FC01318320836DC0CE011A
S11313808E569F4F20E03FEF4FE757E4FC0160810A
S11313907181828193810E94991418160CF04AC0BD
S11313A0CE0182579F4F20E030E040E251E4FC013F
S11313B060817181828193810E949D14DC01CB0143
S11313C08E010A561F4FBC01CD010E94F813DC01A7
S11313D0CB01F8019183808324C0CE0188569F4FAE
S11313E029E130E0FC0131832083CE0188569F4FF0
S11313F0FC01808191810197F1F79E0128563F4FAE
S1131400F90191838083CE018A569F4F9E012A560B
S11314103F4FF9012081318121503109FC01318391
S11314202083CE018A569F4FFC0180819181892BB4
S1131430A1F67BC08E010A561F4FCE018E569F4FD8
S1131440FC0160817181828193810E94F813DC0127
S1131450CB01F80191838083CE0186569F4F9E0174
S11314602A563F4FF90120813181FC0131832083C9
S1131470CE0186569F4FFC01808191810197F1F73F
S11314809E0126563F4FF901918380834EC0CE01C1
S11314908B579F4F20E030E04FE753E4FC0160811D
S11314A07181828193810E94991418166CF58E01C2
S11314B004561F4FCE0187579F4FFC0160817181F5
S11314C0828193810E94F813DC01CB01F80191839E
S11314D08083CE0182569F4F9E0124563F4FF901CF
S11314E020813181FC0131832083CE0182569F4FBC
S11314F0FC01808191810197F1F79E0122563F4FB3
S1131500F9019183808328C08E0103571F4FCE01B8
S11315108B579F4FFC0160817181828193810E946E
S1131520F813DC01CB01F8018083CE0180569F4F74
S11315309E0123573F4FF9012081FC012083CE01F6
S113154080569F4FFC018081282F2A95F1F7CE0108
S113155080569F4FFC01208382E290E022E230E03B
S1131560F90120812260FC01208382E290E022E2E2
S113157030E0F90120812160FC0120830E94E20116
S113158080E090E4ACE9B5E48D839E83AF83B887B3
S11315908E0107591F4F2BEA3AEA4AEA5EE36D814E
S11315A07E818F8198850E949D14DC01CB01F80116
S11315B080839183A283B3838E0103591F4F20E05C
S11315C030E040E85EE36D817E818F8198850E94E2
S11315D09D14DC01CB01F80180839183A283B38342
S11315E0CE0187599F4F20E030E040E85FE3FC01E3
S11315F060817181828193810E948C1388233CF4E1
S1131600CE018F589F4F21E0FC0120832AC1CE01D7
S113161083599F4F20E03FEF4FE757E4FC0160817F
S11316207181828193810E94991418160CF0CDC0A7
S113163020E030E04AE754E46D817E818F81988513
S11316400E949013DC01CB019E012E583F4FF901FB
S113165080839183A283B3838E010A581F4FCE01E6
S11316608E589F4F20E030E04AE753E4FC0160814C
S11316707181828193810E949D14DC01CB01F80168
S113168080839183A283B383CE018A589F4F20E045
S113169030E040E85FE3FC016081718182819381E5
S11316A00E948C1388234CF4CE0186589F4F21E06E
S11316B030E0FC01318320836DC0CE018A589F4FF6
S11316C020E03FEF4FE757E4FC01608171818281A4
S11316D093810E94991418160CF04AC0CE018E58BA
S11316E09F4F20E030E040E251E4FC0160817181D1
S11316F0828193810E949D14DC01CB018E010658E6
S11317001F4FBC01CD010E94F813DC01CB01F8018D
S11317109183808324C0CE0184589F4F29E130E017
S1131720FC0131832083CE0184589F4FFC018081CA
S113173091810197F1F79E0124583F4FF90191835C
S11317408083CE0186589F4F9E0126583F4FF90152
S11317502081318121503109FC0131832083CE0164
S113176086589F4FFC0180819181892BA1F679C015
S11317708E0106581F4FCE018A589F4FFC0160818D
S11317807181828193810E94F813DC01CB01F801FD
S113179091838083CE0182589F4F9E0126583F4FEC
S11317A0F90120813181FC0131832083CE018258EB
S11317B09F4FFC01808191810197F1F79E0122588E
S11317C03F4FF901918380834CC0CE0187599F4FCD
S11317D020E030E04FE753E4FC01608171818281B5
S11317E093810E949914181664F58E0100581F4FB6
S11317F0CE0183599F4FFC01608171818281938165
S1131800F7D7DC01CB01F80191838083CE018E5799
S11318109F4F9E0120583F4FF90120813181FC01E7
S113182031832083CE018E579F4FFC0180819181AB
S11318300197F1F79E012E573F4FF9019183808361
S113184027C08E010F581F4FCE0187599F4FFC01AF
S11318506081718182819381CBD7DC01CB01F80156
S11318608083CE018C579F4F9E012F583F4FF90123
S11318702081FC012083CE018C579F4FFC01808185
S1131880282F2A95F1F7CE018C579F4FFC01208316
S11318900E94E20180E090E0A0E8B2E489879A87A0
S11318A0AB87BC878E01035B1F4F2BEA3AEA4AEAF7
S11318B05EE369857A858B859C850E949D14DC0195
S11318C0CB01F80180839183A283B3838E010F5AE5
S11318D01F4F20E030E040E85EE369857A858B8520
S11318E09C850E949D14DC01CB01F80180839183C7
S11318F0A283B383CE01835B9F4F20E030E040E8B6
S11319005FE3FC01608171818281938105D7882323
S11319103CF4CE018B5A9F4F21E0FC01208321C16E
S1131920CE018F5A9F4F20E03FEF4FE757E4FC0171
S11319306081718182819381FCD718160CF0C6C036
S113194020E030E04AE754E469857A858B859C85FC
S1131950E7D6DC01CB019E012A5A3F4FF90180836F
S11319609183A283B3838E01065A1F4FCE018A5AF4
S11319709F4F20E030E04AE753E4FC01608171812D
S113198082819381DAD7DC01CB01F80180839183D2
S1131990A283B383CE01865A9F4F20E030E040E813
S11319A05FE3FC016081718182819381B5D68823D4
S11319B04CF4CE01825A9F4F21E030E0FC01318388
S11319C0208369C0CE01865A9F4F20E03FEF4FE746
S11319D057E4FC016081718182819381AAD7181632
S11319E00CF048C0CE018A5A9F4F20E030E040E21C
S11319F051E4FC0160817181828193819ED7DC0175
S1131A00CB018E01025A1F4FBC01CD01F1D6DC017E
S1131A10CB01F8019183808324C0CE01805A9F4F6B
S1131A2029E130E0FC0131832083CE01805A9F4FAD
S1131A30FC01808191810197F1F79E01205A3F4F6B
S1131A40F90191838083CE01825A9F4F9E01225ACD
S1131A503F4FF9012081318121503109FC0131834B
S1131A602083CE01825A9F4FFC0180819181892B72
S1131A70A1F677C08E01025A1F4FCE01865A9F4F9E
S1131A80FC016081718182819381B2D6DC01CB013A
S1131A90F80191838083CE018E599F4F9E01225A73
S1131AA03F4FF90120813181FC0131832083CE0134
S1131AB08E599F4FFC01808191810197F1F79E011E
S1131AC02E593F4FF901918380834BC0CE01835B34
S1131AD09F4F20E030E04FE753E4FC0160817181C7
S1131AE08281938126D7181664F58E010C591F4FF5
S1131AF0CE018F5A9F4FFC01608171818281938155
S1131B0077D6DC01CB01F80191838083CE018A5919
S1131B109F4F9E012C593F4FF90120813181FC01D7
S1131B2031832083CE018A599F4FFC0180819181AA
S1131B300197F1F79E012A593F4FF9019183808360
S1131B4027C08E010B5A1F4FCE01835B9F4FFC01B0
S1131B5060817181828193814BD6DC01CB01F801D4
S1131B608083CE0188599F4F9E012B5A3F4FF90124
S1131B702081FC012083CE0188599F4FFC01808184
S1131B80282F2A95F1F7CE0188599F4FFC01208315
S1131B900E94E20180E090E0A0E8B2E48D879E8795
S1131BA0AF87B88B2BEA3AEA4AEA5EE36D857E8515
S1131BB08F859889C2D6DC01CB0189AB9AABABABDC
S1131BC0BCAB20E030E040E85EE36D857E858F8528
S1131BD09889B3D6DC01CB018DAB9EABAFABB8AF6C
S1131BE020E030E040E85FE369A97AA98BA99CA9C9
S1131BF093D588231CF481E089AFFEC020E03FEF39
S1131C004FE757E46DA97EA98FA998AD92D618160F
S1131C100CF0B7C020E030E04AE754E46D857E85DF
S1131C208F8598897DD5DC01CB018AAF9BAFACAFA2
S1131C30BDAF8E01025C1F4F20E030E04AE753E461
S1131C406AAD7BAD8CAD9DAD78D6DC01CB01F801DE
S1131C5080839183A283B383CE01CE9620E030E0CB
S1131C6040E85FE3FC01608171818281938154D5F6
S1131C7088234CF4CE018E5B9F4F21E030E0FC01C1
S1131C803183208363C0CE01CE9620E03FEF4FE73F
S1131C9057E4FC0160817181828193814AD61816D0
S1131CA00CF044C020E030E040E251E46AAD7BAD8A
S1131CB08CAD9DAD42D6DC01CB018E010E5B1F4F76
S1131CC0BC01CD0195D5DC01CB01F8019183808362
S1131CD024C0CE018C5B9F4F29E130E0FC013183AD
S1131CE02083CE018C5B9F4FFC0180819181019701
S1131CF0F1F79E012C5B3F4FF90191838083CE0164
S1131D008E5B9F4F9E012E5B3F4FF90120813181F5
S1131D1021503109FC0131832083CE018E5B9F4F1A
S1131D20FC0180819181892BA1F666C08E010E5B36
S1131D301F4FCE01CE96FC01608171818281938117
S1131D4057D5DC01CB01F80191838083CE018A5BF6
S1131D509F4F9E012E5B3F4FF90120813181FC0191
S1131D6031832083CE018A5B9F4FFC018081918166
S1131D700197F1F79E012A5B3F4FF901918380831C
S1131D803BC020E030E04FE753E469A97AA98BA96E
S1131D909CA9CFD5181644F58E01085B1F4F6DA979
S1131DA07EA98FA998AD24D5DC01CB01F8019183DC
S1131DB08083CE01865B9F4F9E01285B3F4FF901D4
S1131DC020813181FC0131832083CE01865B9F4FCA
S1131DD0FC01808191810197F1F79E01265B3F4FC1
S1131DE0F901918380831BC069A97AA98BA99CA955
S1131DF0FFD4DC01CB0189AFCE01845B9F4F29ADB9
S1131E00FC012083CE01845B9F4FFC018081282F3D
S1131E102A95F1F7CE01845B9F4FFC01208382E277
S1131E2090E022E230E0F90120812E7FFC01208342
S1131E300E94E20180E090E0A0E8B2E4898B9A8BF2
S1131E40AB8BBC8B2BEA3AEA4AEA5EE369897A896E
S1131E508B899C8972D5DC01CB018D8B9E8BAF8BDA
S1131E60B88F20E030E040E85EE369897A898B89A5
S1131E709C8963D5DC01CB01898F9A8FAB8FBC8F92
S1131E8020E030E040E85FE36D897E898F89988D9A
S1131E9043D488231CF481E08D8FA7C020E03FEF5A
S1131EA04FE757E4698D7A8D8B8D9C8D42D518163A
S1131EB00CF074C020E030E04AE754E469897A8980
S1131EC08B899C892DD4DC01CB018E8F9F8FA8A395
S1131ED0B9A320E030E04AE753E46E8D7F8D88A1FA
S1131EE099A12BD5DC01CB018AA39BA3ACA3BDA3F1
S1131EF020E030E040E85FE36AA17BA18CA19DA1D2
S1131F000BD488232CF481E090E09FA38EA33BC0E4
S1131F1020E03FEF4FE757E46AA17BA18CA19DA18C
S1131F2008D518163CF520E030E040E251E46E8D0F
S1131F307F8D88A199A101D5DC01CB01BC01CD0124
S1131F4057D4DC01CB019FA38EA30FC089E190E09D
S1131F5099A788A788A599A50197F1F799A788A7B4
S1131F608EA19FA101979FA38EA38EA19FA1892BD0
S1131F7069F73BC06AA17BA18CA19DA139D4DC0186
S1131F80CB019FA38EA38EA19FA19BA78AA78AA5FD
S1131F909BA50197F1F79BA78AA727C020E030E013
S1131FA04FE753E46D897E898F89988DC2D41816C2
S1131FB0A4F4698D7A8D8B8D9C8D1AD4DC01CB01B0
S1131FC09DA78CA78CA59DA59FA78EA78EA59FA531
S1131FD00197F1F79FA78EA70EC06D897E898F891F
S1131FE0988D06D4DC01CB018D8F8D8D88AB88A9AB
S1131FF08A95F1F788AB88E288D888E086D8ACD88F
S113200086E083D8CE018F559F4FFC0180817DD817
S11320100000CF55DF4F0FB6F894DEBF0FBECDBF23
S1132020DF91CF911F910F910895CF93DF93CDB797
S1132030DEB702D019D0FECFCF93DF931F921F9249
S1132040CDB7DEB78FE0C8D882E092E09A83898367
S113205089819A81A3D80E94040143D300000F9080
S11320600F90DF91CF9108950F931F93CF93DF9338
S1132070CDB7DEB7CD54D1090FB6F894DEBF0FBE8D
S1132080CDBF89E0EAE4F2E0DE01DC9601900D9236
S11320908A95E1F71982ACC18981882F90E0833059
S11320A0910579F08630910509F482C0892B09F0F5
S11320B0F6C052D88AE092E071D861E08DE034D85D
S11320C000C180E090E0AAEFB3E4888B998BAA8BDF
S11320D0BB8B20E030E04AE755E4688979898A8936
S11320E09B892BD4DC01CB018C8B9D8BAE8BBF8B5E
S11320F020E030E040E85FE36C897D898E899F8928
S11321000BD388232CF481E090E0998F888F3BC017
S113211020E03FEF4FE757E46C897D898E899F89E2
S113212008D418163CF520E030E040E251E4688918
S113213079898A899B8901D4DC01CB01BC01CD0159
S113214057D3DC01CB01998F888F0FC080E991E0D0
S11321509B8F8A8F8A8D9B8D0197F1F79B8F8A8F36
S1132160888D998D0197998F888F888D998D892B6A
S113217069F713C06C897D898E899F8939D3DC0105
S1132180CB01998F888F888D998D9D8F8C8F8C8DA5
S11321909D8D0197F1F79D8F8C8F0E94AC0887E18C
S11321A092E00E94CE0861E08DE00E94940889C00C
S11321B080E090E0AAEFB3E48A839B83AC83BD8381
S11321C020E030E04AE755E46A817B818C819D817F
S11321D0B4D3DC01CB018E8F9F8FA8A3B9A320E0D9
S11321E030E040E85FE36E8D7F8D88A199A194D2A1
S11321F088232CF481E090E09BA38AA33BC020E0D9
S11322003FEF4FE757E46E8D7F8D88A199A191D35D
S113221018163CF520E030E040E251E46A817B810D
S11322208C819D818AD3DC01CB01BC01CD01E0D23C
S1132230DC01CB019BA38AA30FC080E991E09DA39D
S11322408CA38CA19DA10197F1F79DA38CA38AA1D6
S11322509BA101979BA38AA38AA19BA1892B69F7C0
S113226013C06E8D7F8D88A199A1C2D2DC01CB01F0
S11322709BA38AA38AA19BA19FA38EA38EA19FA1A6
S11322800197F1F79FA38EA30E94AC0886E292E027
S11322900E94CE0861E08DE00E94940812C029815A
S11322A08BEA289F812D1124982F9695892F880FCA
S11322B0890F922F981B8DE0890F61E00E9494088A
S11322C000007AC080E090E0A8ECB2E48E839F83A3
S11322D0A887B98720E030E04AE755E46E817F8122
S11322E0888599852AD3DC01CB0188A799A7AAA759
S11322F0BBA720E030E040E85FE368A579A58AA5A4
S11323009BA50AD288232CF481E090E09DA78CA79A
S11323103BC020E03FEF4FE757E468A579A58AA5C5
S11323209BA507D318163CF520E030E040E251E4C9
S11323306E817F818885998500D3DC01CB01BC0146
S1132340CD0156D2DC01CB019DA78CA70FC080E93B
S113235091E09FA78EA78EA59FA50197F1F79FA750
S11323608EA78CA59DA501979DA78CA78CA59DA53F
S1132370892B69F713C068A579A58AA59BA538D2CE
S1132380DC01CB019DA78CA78CA59DA599AB88AB3F
S113239088A999A90197F1F799AB88AB0E941A0112
S11323A08981082F10E00E947601282FCE01CC9657
S11323B0800F911FFC0120838981882F90E09E016A
S11323C0245C3F4F820F931FFC0180818E3209F4FD
S11323D079CF8981882F90E09E01245C3F4F820F42
S11323E0931FFC0180810E94B60889818F5F8983D5
S11323F08981893008F450CECE01CC9698D09F873D
S11324008E878E859F8599230CF081C00E94AC082D
S113241084E392E00E94CE089E012B5B3F4F8E85A1
S11324209F854AE050E0B901F3D2CE018B5B9F4F08
S11324300E94CE0880E090E4ACE1B5E48A879B87F3
S1132440AC87BD8720E030E04AE755E46A857B85A8
S11324508C859D8572D2DC01CB018AAB9BABACAB86
S1132460BDAB20E030E040E85FE36AA97BA98CA91A
S11324709DA952D188232CF481E090E09FAB8EABD0
S11324803BC020E03FEF4FE757E46AA97BA98CA942
S11324909DA94FD218163CF520E030E040E251E40B
S11324A06A857B858C859D8548D2DC01CB01BC0186
S11324B0CD019ED1DC01CB019FAB8EAB0FC080E977
S11324C091E099AF88AF88AD99AD0197F1F799AFD5
S11324D088AF8EA99FA901979FAB8EAB8EA99FA9A8
S11324E0892B69F717C06AA97BA98CA99DA980D1FA
S11324F0DC01CB019FAB8EAB8EA99FA99BAF8AAFAA
S11325008AAD9BAD0197F1F79BAF8AAF03C0CE01B3
S1132510CC96A6D00000C35BDF4F0FB6F894DEBFA5
S11325200FBECDBFDF91CF911F910F910895CF932F
S1132530DF9300D01F921F92CDB7DEB79D838C83AB
S1132540198214C08981882F90E02C813D81820FEB
S1132550931F19D09B838A838A819B8199231CF4BE
S11325608A819B8108C089818D5F898389818930B3
S113257048F380E090E00F900F900F900F900F9031
S1132580DF91CF910895CF93DF9300D01F921F92D4
S1132590CDB7DEB79D838C8319821CC08981882FB7
S11325A090E02C813D81820F931FFC018081803358
S11325B058F08981882F90E02C813D81820F931FF0
S11325C0FC0180818A3318F08FEF9FEF41C089812D
S11325D08F5F89838981833008F38C819D81FC011D
S11325E08081882F90E0C09744E6489F9001499FDE
S11325F0300D11248C819D810196FC018081882FEE
S113260090E0C097880F991FAC01440F551F440FE9
S1132610551F840F951F280F391F8C819D810296A9
S1132620FC018081882F90E0C097820F931F9B83C9
S11326308A838A819B818F3F910509F024F48A81E2
S11326409B8199231CF48EEF9FEF02C08A819B81AA
S11326500F900F900F900F900F90DF91CF910895EE
S1132660CF93DF9300D01F92CDB7DEB79C838B83CB
S113267083E58A838A811AD019820DC08981882FC3
S113268090E02B813C81820F931FFC0180810ED04E
S113269089818F5F89838981893080F300000F905D
S11326A00F900F900F90DF91CF910895CF93DF9308
S11326B01F92CDB7DEB78983000080EC90E0FC0167
S11326C08081882F90E080729927892BB1F386EC62
S11326D090E02981FC01208300000F90DF91CF91CD
S11326E00895CF93DF93CDB7DEB785EC90E0FC017E
S11326F0108284EC90E027E6FC01208381EC90E0DA
S113270028E1FC01208382EC90E026E0FC01208398
S11327100000DF91CF91089597D008F481E00895E7
S11327200CD0CDC0C5D040F0BCD030F021F45F3F18
S113273019F0AEC05111F7C0B1C0D2D098F39923AB
S1132740C9F35523B1F3951B550BBB27AA27621771
S11327507307840738F09F5F5F4F220F331F441FB6
S1132760AA1FA9F333D00E2E3AF0E0E830D09150EE
S11327705040E695001CCAF729D0FE2F27D0660FDB
S1132780771F881FBB1F261737074807AB07B0E81A
S113279009F0BB0B802DBF01FF2793585F4F2AF030
S11327A09E3F510568F074C0BEC05F3FECF3983E95
S11327B0DCF3869577956795B795F7959F5FC9F78D
S11327C0880F911D9695879597F90895E1E0660F16
S11327D0771F881FBB1F621773078407BA0720F08F
S11327E0621B730B840BBA0BEE1F88F7E0950895F8
S11327F07FD088F09F5790F0B92F9927B751A0F058
S1132800D1F0660F771F881F991F1AF0BA95C9F780
S113281012C0B13081F086D0B1E0089583C0672F33
S1132820782F8827B85F39F0B93FCCF38695779530
S11328306795B395D9F73EF4909580957095619519
S11328407F4F8F4F9F4F0895990F0008550FAA0B84
S1132850E0E8FEEF16161706E807F907C0F01216AF
S11328601306E407F50798F0621B730B840B950BB2
S113287039F40A2661F0232B242B252B21F4089507
S11328800A2609F4A140A6958FEF811D811D0895A4
S113289097F99F6780E870E060E008959FEF80EC0F
S11328A0089500240A9416161706180609060895B2
S11328B000240A9412161306140605060895092E18
S11328C00394000C11F4882352F0BB0F40F4BF2B87
S11328D011F460FF04C06F5F7F4F8F4F9F4F0895C7
S11328E057FD9058440F551F59F05F3F71F04795BD
S11328F0880F97FB991F61F09F3F79F087950895A2
S1132900121613061406551FF2CF4695F1DF08C0C0
S1132910161617061806991FF1CF869571056105DD
S113292008940895E894BB2766277727CB0197F985
S113293008958ADF08F48FEF08950BD0C0CFB1DF7C
S113294028F0B6DF18F0952309F0A2CFA7CF112401
S1132950EACFC6DFA0F3959FD1F3950F50E0551F42
S1132960629FF001729FBB27F00DB11D639FAA27E0
S1132970F00DB11DAA1F649F6627B00DA11D661F2F
S1132980829F2227B00DA11D621F739FB00DA11D50
S1132990621F839FA00D611D221F749F3327A00D0A
S11329A0611D231F849F600D211D822F762F6A2FA6
S11329B011249F5750408AF0E1F088234AF0EE0F2B
S11329C0FF1FBB1F661F771F881F91505040A9F738
S11329D09E3F510570F05CCFA6CF5F3FECF3983E6D
S11329E0DCF3869577956795B795F795E7959F5F9F
S11329F0C1F7FE2B880F911D9695879597F9089539
S1132A00EE0FFF1F881F8BBF0790F691E02D1994DE
S1132A104532510518F4423008F004C0FB0110821D
S1132A20CB010895BB274A3031F4992322F4BDE247
S1132A30909581959F4F01C0BB27FB015527AA277D
S1132A40880F991FAA1FA41710F0A41B8395505137
S1132A50B9F7A05DAA3308F0A95DA193009779F7AF
S1132A60B111B1931192CB0100C0DC01FC01672FBD
S1132A7071917723E1F7329704C07C916D93708351
S1112A806291AE17BF07C8F30895F894FFCF14
S1132A8E010057656C636F6D6500436F6C6F723A2E
S1132A9E0A5265643A2000436F6C6F723A0A4772A9
S1132AAE65656E3A2000436F6C6F723A0A426C751C
S1132ABE653A20004E6F20636F6C6F7220736574DD
S1132ACE2C0A4572726F723A20002E2E2E2E2E2E46
S1072ADE2E2E2E0066
S9030000FC
